{
  "contractName": "Multiplier",
  "abi": [
    {
      "anonymous": false,
      "inputs": [
        {
          "indexed": true,
          "name": "multiplicand",
          "type": "uint256"
        },
        {
          "indexed": true,
          "name": "multiplier",
          "type": "uint256"
        },
        {
          "indexed": true,
          "name": "sender",
          "type": "address"
        },
        {
          "indexed": false,
          "name": "product",
          "type": "uint256"
        }
      ],
      "name": "Multiplied",
      "type": "event"
    },
    {
      "constant": false,
      "inputs": [
        {
          "name": "a",
          "type": "uint256"
        },
        {
          "name": "b",
          "type": "uint256"
        }
      ],
      "name": "multiply",
      "outputs": [
        {
          "name": "r",
          "type": "uint256"
        }
      ],
      "payable": false,
      "stateMutability": "nonpayable",
      "type": "function"
    }
  ],
  "bytecode": "0x6060604052341561000f57600080fd5b61010d8061001e6000396000f300606060405260043610603f576000357c0100000000000000000000000000000000000000000000000000000000900463ffffffff168063165c4a16146044575b600080fd5b3415604e57600080fd5b606b60048080359060200190919080359060200190919050506081565b6040518082815260200191505060405180910390f35b600081830290503373ffffffffffffffffffffffffffffffffffffffff1682847f95f43b7f617d5258b0fb35422a75edbd28be81192e925e2acd477799bb33f4dd846040518082815260200191505060405180910390a4809050929150505600a165627a7a7230582074f731c369f22af1ff268597e914731b26962248a90551127216868b5650c0fb0029",
  "source": "pragma solidity ^0.4.21;\n\nimport \"openzeppelin-solidity/contracts/math/SafeMath.sol\";\n\ncontract Multiplier {\n\n    event Multiplied(uint256 indexed multiplicand, uint256 indexed multiplier, address indexed sender, uint256 product);\n\n    function multiply(uint256 a, uint256 b) public returns(uint r) {\n        //r = SafeMath.mul(a, b);\nr =a*b;\n        emit Multiplied(a, b, msg.sender, r);\n\n        return r;\n    }\n}",
  "sourcePath": "/code/Contracts/Multiplier/contracts/Multiplier.sol",
  "compiler": {
    "name": "solc",
    "version": "0.4.21+commit.dfe3193c.Emscripten.clang"
  },
  "schemaVersion": "2.0.0",
  "updatedAt": "2018-05-20T17:56:54.274Z"
}