{
  "contractName": "Multiplier",
  "abi": [
    {
      "anonymous": false,
      "inputs": [
        {
          "indexed": true,
          "name": "multiplicand",
          "type": "uint256"
        },
        {
          "indexed": true,
          "name": "multiplier",
          "type": "uint256"
        },
        {
          "indexed": true,
          "name": "sender",
          "type": "address"
        },
        {
          "indexed": false,
          "name": "product",
          "type": "uint256"
        }
      ],
      "name": "Multiplied",
      "type": "event"
    },
    {
      "constant": false,
      "inputs": [
        {
          "name": "a",
          "type": "uint256"
        },
        {
          "name": "b",
          "type": "uint256"
        }
      ],
      "name": "multiply",
      "outputs": [
        {
          "name": "r",
          "type": "uint256"
        }
      ],
      "payable": false,
      "stateMutability": "nonpayable",
      "type": "function"
    }
  ],
  "bytecode": "0x6060604052341561000f57600080fd5b6101518061001e6000396000f300606060405260043610610041576000357c0100000000000000000000000000000000000000000000000000000000900463ffffffff168063165c4a1614610046575b600080fd5b341561005157600080fd5b6100706004808035906020019091908035906020019091905050610086565b6040518082815260200191505060405180910390f35b600061009283836100ed565b90503373ffffffffffffffffffffffffffffffffffffffff1682847f95f43b7f617d5258b0fb35422a75edbd28be81192e925e2acd477799bb33f4dd846040518082815260200191505060405180910390a480905092915050565b600080831415610100576000905061011f565b818302905081838281151561011157fe5b0414151561011b57fe5b8090505b929150505600a165627a7a72305820913a2f88f283c38bf0c62700027a99521e129798df91f132f4e796293de518ab0029",
  "source": "pragma solidity ^0.4.21;\n\nimport \"openzeppelin-solidity/contracts/math/SafeMath.sol\";\n\ncontract Multiplier {\n\n    event Multiplied(uint256 indexed multiplicand, uint256 indexed multiplier, address indexed sender, uint256 product);\n\n    function multiply(uint256 a, uint256 b) public returns(uint r) {\n\n        r = SafeMath.mul(a, b);\n\n        emit Multiplied(a, b, msg.sender, r);\n\n        return r;\n    }\n}",
  "sourcePath": "/code/Contracts/Multiplier/contracts/Multiplier.sol",
  "compiler": {
    "name": "solc",
    "version": "0.4.21+commit.dfe3193c.Emscripten.clang"
  },
  "schemaVersion": "2.0.0",
  "updatedAt": "2018-05-11T10:18:16.991Z"
}